:020000040800F2
:10000000F8560120D52100082113000863BA000822
:1000100023130008271300082B130008000000001A
:100020000000000000000000000000002F13000886
:10003000E921000800000000AFB9000851120008D3
:10004000EF210008EF210008EF210008EF21000850
:10005000EF210008EF2100083118000843180008BC
:10006000551800086718000879180008EF210008E3
:10007000EF210008EF210008EF210008EF21000820
:10008000EF210008EF210008EF210008EF21000810
:10009000EF210008EF210008EF2100088B1800086D
:1000A000EF210008EF210008EF210008EF210008F0
:1000B000EF210008EF210008EF210008EF210008E0
:1000C000EF210008EF210008EF210008EF210008D0
:1000D000EF2100084B1A00087D1A0008EF210008E4
:1000E000B9180008EF210008EF210008EF210008EF
:1000F000EF210008EF210008EF210008EF210008A0
:10010000EF210008EF210008EF210008EF2100088F
:10011000EF210008EF210008EF210008EF2100087F
:10012000EF210008EF210008EF210008EF2100086F
:10013000EF210008EF210008EF210008EF2100085F
:10014000EF210008EF210008EF210008EF2100084F
:10015000EF210008EF210008EF210008AF1A000886
:10016000EF210008EF210008EF210008EF2100082F
:10017000EF210008EF210008EF2100080000000037
:10018000EF210008EF210008EF210008EF2100080F
:10019000EF210008EF210008EF210008EF210008FF
:1001A000EF210008EF210008EF21000800F002F81D
:1001B00000F0B6F80AA090E8000C82448344AAF14B
:1001C0000107DA4501D100F0ABF8AFF2090EBAE849
:1001D0000F0013F0010F18BFFB1A43F0010318477B
:1001E000943F0200B43F02000A444FF0000C10F8A4
:1001F000013B13F0070408BF10F8014B1D1108BFA5
:1002000010F8015B641E05D010F8016B641E01F844
:10021000016BF9D113F0080F1EBF10F8014BAD1C94
:100220000C1B09D16D1E58BF01F801CBFAD505E0B2
:1002300014F8016B01F8016B6D1EF9D59142D6D30C
:10024000704700000023002400250026103A28BF34
:1002500078C1FBD8520728BF30C148BF0B60704738
:100260006E291CF0C38270291CF00584662921F0D8
:100270004681652921F04381672921F04081612968
:1002800021F03F8103681B0A28BF41F080016929E2
:100290001CF0708264291CF06D8275291CF06A8242
:1002A0006F291CF0928378291CF0D183E9291CF076
:1002B0002D83E4291CF02A83F5291CF02783EF29DC
:1002C0001CF08F83F8291CF0D0830368DB0928BF5A
:1002D00041F0800163291DF0138273291DF01882FB
:1002E000E3291DF02382F3291DF0288200207047A6
:1002F0001FB521F0B6F89DE803001CF097F91DF03A
:10030000EFFA04000020002120F0E2F9401C6060B8
:100310000020002120F0C6F9E0601FBD10B510BD1F
:100320001DF0B0FA1146FFF7E3FF08F049FB1DF09E
:100330008DFB03B4FFF7F2FF03BC1DF0BDFB000013
:100340000020704738B504460D4601236A46002157
:100350007648006808F021FC012804D10122694692
:10036000734809F0B6FA002038BD08B54FF0FF33E6
:10037000012269466E4809F046FB9DF8000008BD61
:1003800031B50025002400BF01236A4600216748DB
:10039000006808F021FC0546641C012D02D0B4F56C
:1003A000FA7FF1D338BD10B5044603E014F8010B11
:1003B000FFF7E6FF20780028F8D110BD7CB5054690
:1003C000284608F00FFB59490860084600680028D5
:1003D0001ED058495548006808F02CFC04463CB132
:1003E0002246294654A009F0F2FF4FF0FF307CBDB1
:1003F00040F203114D48006808F077FB044674B1E1
:100400002246294654A009F0E2FF4FF0FF30EEE704
:10041000294658A009F0DBFF4FF0FF30E7E7002046
:100420004AF6C8710123594ACDE9001058A1404845
:1004300009F0C2F90020DAE710B5A520FFF7A0FF08
:100440006020FFF79DFF10BD10B5A520FFF798FFB6
:100450006520FFF795FF10BD10B5A520FFF790FFB1
:100460009020FFF78DFF10BD10B5A520FFF788FF86
:100470009120FFF785FF10BD70B505460C46012D94
:1004800036DD45A1606809F008FD10B9FFF7DCFF13
:100490002EE042A1606809F000FD30B9A520FFF709
:1004A0006FFF0020FFF76CFF22E03DA1606809F0BC
:1004B000F4FC10B9FFF7C0FF1AE03AA1606809F038
:1004C000ECFC30B9A520FFF75BFF6120FFF758FF78
:1004D0000EE036A1606809F0E0FC10B9FFF7BCFF40
:1004E00006E034A1606809F0D8FC08B9FFF7BCFF4A
:1004F00070BD32A0FFF762FF10B132A009F067FFB4
:1005000001E016F062F9FCE71CB514200321CB01D1
:100510000022CDE90010AFF225012FA00AF075FEF0
:10052000044614B120460AF037FE1CBD000000202E
:1005300064B200204503000873657420257320729F
:100540007820696E646963617465206572726F7288
:100550002E25640A000000006F70656E2025732050
:10056000646576696365206572726F722E25640A10
:100570000000000063616E27742066696E642025A8
:1005800073206465766963652E0A00009C02002072
:1005900045414958340000002D7300002D6673005A
:1005A0002D7363002D667363000000002D6776666F
:1005B000000000002D676873000000007561727410
:1005C000320000007561727432206F70656E2065B4
:1005D00072726F722E0A0000656169783400000043
:1005E00010B500219B200BF036FE01219A200BF064
:1005F00032FE00219C200BF02EFE01219D200BF0ED
:100600002AFE10BD10B501219B200BF024FE002115
:100610009A200BF020FE01219C200BF01CFE0021F3
:100620009D200BF018FE10BD10B500219B200BF093
:1006300012FE01219A200BF00EFE01219C200BF0EE
:100640000AFE00219D200BF006FE10BD10B5012111
:100650009B200BF000FE00219A200BF0FCFD0021F6
:100660009C200BF0F8FD01219D200BF0F4FD10BD46
:1006700010B501219B200BF0EEFD01219A200BF01B
:10068000EAFD01219C200BF0E6FD01219D200BF0ED
:10069000E2FD10BD70B505460C4620A0216809F0AA
:1006A00096FE012D39DD21A0616809F090FE23A19D
:1006B000606809F0F2FB28B921A009F088FEFFF775
:1006C0008FFF2AE021A1606809F0E7FB28B920A08C
:1006D00009F07DFEFFF796FF1FE01FA1606809F09B
:1006E000DCFB28B91DA009F072FEFFF79DFF14E0A6
:1006F0001CA1606809F0D1FB28B91BA009F067FEB6
:10070000FFF7A4FF09E01AA1606809F0C6FB20B951
:1007100018A009F05CFEFFF7ABFF70BD25732069E0
:10072000732072756E6564210A000000617267763D
:100730005B315D3A2025730A000000002D66000041
:10074000666F72776172640A000000002D6200001B
:100750006261636B0A0000002D6C00006C656674BA
:100760000A0000002D72000072696768740A0000B8
:100770002D73000073746F700A00000070B504469A
:100780000D460121494808F05DFD002070BD0EB501
:1007900008E002A84FF0FF330522012100904348F2
:1007A00008F0BBFD012301AA00214148006808F0C0
:1007B000F4F90128EDD19DF804000EBD31B50025F6
:1007C000002400BF01236A4600213948006808F070
:1007D00003FA0546641C012D02D0B4F5FA7FF1D36B
:1007E00038BD10B5044603E014F8010BFFF7E6FF2F
:1007F00020780028F8D110BD70B50546284608F0CD
:10080000F1F82B4908600846006800281ED02949E5
:100810002748006808F00EFA04463CB122462946F3
:1008200025A009F0D4FD4FF0FF3070BD40F2031158
:100830001F48006808F059F9044674B12246294659
:1008400025A009F0C4FD4FF0FF30EEE7294629A0AE
:1008500009F0BDFD4FF0FF30E7E700222BA1134860
:1008600008F0B7FC0020E0E72BA0FFF7C5FF10B1B0
:100870002BA009F0ACFD05E0142008F045F8044673
:100880000AF07CFDF8E71CB50A2003214FF48073C1
:100890000022CDE90010AFF22F011CA00AF0B5FC38
:1008A000044614B120460AF077FC1CBD98B2002023
:1008B000040000207D0700087365742025732072F2
:1008C0007820696E646963617465206572726F7205
:1008D0002E25640A000000006F70656E20257320CD
:1008E000646576696365206572726F722E25640A8D
:1008F0000000000063616E27742066696E64202525
:1009000073206465766963652E0A000077697265F5
:100910006C6573730000000075617274360000002E
:100920007561727436206F70656E206572726F72B9
:100930002E0A000010B50446012C04D10121A72085
:100940000BF089FC03E00021A7200BF084FC10BD14
:1009500010B50021A7200BF073FC002010BD000093
:100960002DE9F84F074688461446994604F1010AD6
:1009700050461BF047FB054685F80080002604E042
:1009800019F80610701C2954C6B2A642F8DB601C88
:100990002B46002239460090FE4800680BF0BAF85A
:1009A000611C884205D128461BF05BFB0020BDE896
:1009B000F88F28461BF055FB4FF0FF30F7E77FB567
:1009C00086B0044615461E46ADF800400020ADF83E
:1009D000020007A802900120ADF80400ADF80C4019
:1009E0000121ADF80E100596ADF8105002226946AF
:1009F000E84800680BF070F8022802D100200AB025
:100A000070BD4FF0FF30FAE77CB504460D468DF817
:100A100004408DF80550022001AB002268210090AF
:100A2000DC4800680BF076F8022801D100207CBD7C
:100A30004FF0FF30FBE77CB504460D468DF80440CF
:100A40008DF80550022001AB00220C210090D14806
:100A500000680BF05FF8022801D100207CBD4FF048
:100A6000FF30FBE713B586B00C466820ADF80000F8
:100A70000020ADF8020006A802900120ADF80400A5
:100A80006820ADF80C000121ADF80E100594ADF80A
:100A9000101002226946BF4800680BF01DF80228BA
:100AA00002D1002008B010BD4FF0FF30FAE737B593
:100AB00086B00C4615466820ADF800000020ADF861
:100AC000020006A802900120ADF804006820ADF8ED
:100AD0000C000121ADF80E100595ADF81040022272
:100AE0006946AC4800680AF0F7FF022802D10020EE
:100AF00009B030BD4FF0FF30FAE737B586B00C468D
:100B000015460C20ADF800000020ADF8020006A844
:100B100002900120ADF804000C20ADF80C0001217A
:100B2000ADF80E100595ADF81040022269469948BF
:100B300000680AF0D1FF022802D1002009B030BDC0
:100B40004FF0FF30FAE713B586B00C460C20ADF835
:100B500000000020ADF8020006A802900120ADF8C8
:100B600004000C20ADF80C000121ADF80E10059426
:100B7000ADF8101002226946864800680AF0ACFF02
:100B8000022802D1002008B010BD4FF0FF30FAE774
:100B900010B50446E006010E1B20FFF735FF10BD1F
:100BA00010B50446E006010E1C20FFF72DFF10BD16
:100BB00070B504460025BC2C01DB012510E0622C39
:100BC00001DB02250CE02A2C01DB032508E0142CB4
:100BD00001DB042504E00A2C01DB052500E00625E5
:100BE00029461A20FFF710FF70BD70B50446B4F512
:100BF0007A7F01DD4FF47A74042C00DA04244FF478
:100C00007A7090FBF4F0401EC5B229461920FFF718
:100C1000FBFEC5B2264604EBD671C1F34F00FFF7C9
:100C2000C7FF70BD70B52DED088B82B0044601AAD8
:100C300002214120FFF73BFF064676BB9DF80500E9
:100C40009DF8041040EA012005B2284620F00BF878
:100C500041EC1B0B9FED500B53EC102B1FF040FE93
:100C600041EC1A0B9FED4E0B53EC102B1FF084FD43
:100C700041EC190B1FF04EFD08EE100A9FED4A0AD9
:100C800028EE000ABDEEC00A10EE100A00B2208065
:100C9000002002B0BDEC088B70BDFFE74FF0FF30C5
:100CA000F7E72DE9FC4104460D4616466A46062143
:100CB0004320FFF7FCFEC7B2D7B99DF801009DF8AD
:100CC000001040EA012000B220809DF803009DF84A
:100CD000021040EA012000B228809DF805009DF82E
:100CE000041040EA012000B230800020BDE8FC8101
:100CF0004FF0FF30FAE72DE9FC4104460D46164659
:100D00006A4606213B20FFF7D2FEC7B2D7B99DF84D
:100D100001009DF8001040EA012000B220809DF8FB
:100D200003009DF8021040EA012000B228809DF8DF
:100D300005009DF8041040EA012000B23080002038
:100D4000BDE8FC814FF0FF30FAE72DE9FC41044695
:100D50000D4616466A4606210320FFF7CEFEC7B2AF
:100D60003FBB9DF801009DF8001040EA012000B251
:100D700020809DF803009DF8021040EA012000B297
:100D800028809DF805009DF8041040EA012000B27B
:100D900030800BE00800002052B81E85EBDD744067
:100DA00000000000000035400000C8420020BDE8FF
:100DB000FC814FF0FF30FAE7F0B589B006460F46E8
:100DC00015461C2D01DD09B0F0BD002101AAE81C6B
:100DD0001154AA208DF804008DF805008DF80660E6
:100DE0008DF80750002405E0395D201D01AA11543B
:100DF000601CC4B2AC42F7DB00240AE001A9281D44
:100E0000085C095D0844C1B201AA281D1154601C88
:100E1000C4B2281D8442F1DB002405E001A9085D6D
:100E2000FFF7CCFC601CC4B2681D8442F6DB00BF37
:100E3000C9E72DE9F04385B004460D4617461E4626
:100E4000DDE90C89200A8DF80000E0B28DF8010080
:100E5000280A8DF80200E8B28DF80300380A8DF8F0
:100E60000400F8B28DF80500300A8DF80600F0B2E3
:100E70008DF807004FEA18208DF8080008F0FF00F1
:100E80008DF809004FEA19208DF80A0009F0FF00DB
:100E90008DF80B0000208DF80C008DF80D008DF8FA
:100EA0000E008DF80F008DF810008DF81100122241
:100EB00069460220FFF780FF05B0BDE8F0832DE909
:100EC000FE4380460D4616461F460A9C4FEA1820F0
:100ED0008DF8000008F0FF008DF80100280A8DF859
:100EE0000200E8B28DF80300300A8DF80400F0B279
:100EF0008DF80500380A8DF80600F8B28DF8070065
:100F0000200E8DF80800200C8DF80900200A8DF8BD
:100F10000A00E0B28DF80B000C2269460120FFF7B1
:100F20004BFFBDE8FE831FB531E001AA02A903A86B
:100F300011F0D3F928BB002000909DED010A5FED70
:100F4000660A20EE200ABDEEC00A10EE103A1AB270
:100F50009DED030A5FED6C0A20EE200ABDEEC00A8B
:100F600010EE103A19B29DED020A5FED710A20EE03
:100F7000200ABDEEC00A10EE103A18B20023FFF7A7
:100F80009EFF142007F0C0FC04460AF0F7F9CCE7F6
:100F9000BCB5642007F0B8FC07460AF0EFF921A0C1
:100FA00007F020FD044634B91EA120A009F00FFA75
:100FB0004FF0FF30BCBD0321204607F096FD30B155
:100FC00018A122A009F003FA4FF0FF30F2E72748FA
:100FD000046027A009F0FBF909E031462BA009F0D5
:100FE000F6F9642007F090FC07460AF0C7F910F004
:100FF000BCFF0028F1D12EA009F0E9F9142003214B
:101000004FF480630022CDE90010AFF2E5012EA07D
:101010000AF0FBF8054615B128460AF0BDF8002095
:10102000C8E70000693263300000000063616E278A
:10103000742066696E64206D7075393235302025F4
:1010400073206465766963650D0A000063616E272D
:1010500074206F70656E64206D7075393235302084
:101060002573206465766963650D0A000800002019
:101070006D70755F646D705F696E6974206973204F
:1010800072756E696E6720210D0A00006D70755FC4
:10109000646D705F696E69742077616974696E67E9
:1010A000202021203078253032780D0A0000000001
:1010B0006D70755F646D705F696E6974206973200F
:1010C0006F6B20210D0A00006D70753932353000CC
:1010D0001CB51BE001A800230622012100901E4838
:1010E00008F01BF960B90120FFF724FC322007F05B
:1010F0000BFC04460AF042F90020FFF71BFC05E058
:10110000322007F001FC04460AF038F9E2E71CB58A
:1011100012A009F05CF9002214A10F4808F059F858
:10112000FFF7F2F9FFF7AFFBFFF732FF11A009F06D
:101130004EF9142003214FF400630022CDE9001082
:10114000AFF273010FA00AF060F8044614B1204614
:101150000AF022F800201CBDB8B200200A6D6173AD
:101160007465725F696E69742E0A0000436F6E7455
:10117000726F6C000A6D61737465725F646F6E6587
:101180002E0A00006D617374657200002DE9F04154
:1011900092B00546884616461F46002400BF002030
:1011A00000905948006840F0805057490860084650
:1011B000006800F08050009000BF00BF00BF00201A
:1011C00000905248006840F440405049086008468A
:1011D000006800F44040009000BF00BF012006906E
:1011E0000004079002200C9041050D91CDF8388045
:1011F0000F951096119706A802F064FA04460CB1F8
:1012000000BFFEE702F094F904460CB100BFFEE710
:101210000F20019002200290002003904FF4A05074
:1012200004904FF480500590052101A802F0A3FC22
:1012300004460CB100BFFEE712B0BDE8F08110B566
:101240000823022219214FF4B470FFF79FFF10BD4D
:1012500010B508F0BBFC01F02CF807F040FB08F0DB
:10126000CAFC10BD70B5044602F09DFD6421B0FBC0
:10127000F1F5284601F042F900222146501E01F006
:10128000C7F8002070BD01B500980AF077F808BDD6
:101290007047704710B5032001F0A8F800221146EE
:1012A0006FF00B0001F0B4F8002211466FF00A0055
:1012B00001F0AEF8002211466FF0090001F0A8F825
:1012C00000221146501F01F0A3F800221146101F02
:1012D00001F09EF800220F21901E01F099F80022E3
:1012E0000F21501E01F094F810BD10B5FFF7A7FFB5
:1012F00000F0A3FF0649074809F0F4F907F01EFBC8
:1013000005A009F0D9F810BD403802400070004037
:1013100000000320F856012075617274310000004E
:10132000704700BFFEE700BFFEE700BFFEE7704763
:1013300008B500BF00200090FC48006840F00100A4
:10134000FA4908600846006800F00100009000BFFC
:1013500000BF08BD08B500BF00200090F34800683A
:1013600040F00200F14908600846006800F0020001
:10137000009000BF00BF08BD08B500BF002000906E
:10138000EA48006840F00400E84908600846006840
:1013900000F00400009000BF00BF08BD08B500BF0A
:1013A00000200090E148006840F00800DF49086034
:1013B0000846006800F00800009000BF00BF08BDAC
:1013C00008B500BF00200090D848006840F0100029
:1013D000D64908600846006800F01000009000BF81
:1013E00000BF08BD08B500BF00200090CF480068CE
:1013F00040F02000CD4908600846006800F0200059
:10140000009000BF00BF08BD08B500BF00200090DD
:10141000C648006840F04000C449086008460068BB
:1014200000F04000009000BF00BF08BD08B500BF3D
:1014300000200090BD48006840F08000BB49086073
:101440000846006800F08000009000BF00BF08BDA3
:1014500008B500BF00200090B448006840F48070D8
:10146000B24908600846006800F48070009000BF30
:1014700000BF08BD0146B12907D2AD4A02EB0110F9
:101480000268521C12B9002000E0002070472DE9CC
:10149000F04107460D461646E8B2FFF7EBFF04465B
:1014A0000CB9BDE8F081F2B2A38999B2A06801F04D
:1014B00048FF00BFF5E72DE9F04107460D4600263D
:1014C000E8B2FFF7D7FF044614B93046BDE8F08113
:1014D000A28991B2A06801F02CFF06463046F5E7DC
:1014E000F0B585B007460E461446F0B2FFF7C2FFCE
:1014F00005460DB905B0F0BD68688047E868009002
:1015000001200190002002900320039024B90120C3
:1015100001900020029019E0012C03D100200190DD
:10152000029013E0022C04D10020019001200290CF
:101530000CE0032C04D1002001900220029005E071
:10154000042C03D111200190002002906946A86864
:1015500001F054FD00BFCDE70246002106E0012066
:101560008840904201D108467047491C2029F6DB8B
:101570004FF0FF30F8E72DE9F05F83460D46164641
:101580001F46DDF828804FF0FF34E8B2FFF772FF06
:101590008146B9F1000F02D10620BDE8F09FD9F8CD
:1015A0000C00FFF7D9FF0446002C01DB102C01D3FF
:1015B0000620F2E70AF0E4F9824604EB44005D49B4
:1015C00031F92000A84219D104EB440001EB80005E
:1015D0004068B84212D104EB440001EB800040881F
:1015E000B0420BD104EB440001EB80008068404521
:1015F00004D150460AF0C8F90020CEE704EB4400BD
:101600004C4931F92000401C20B150460AF0BCF989
:101610000720C2E728B204EB4401464A22F8210021
:1016200004EB4400114601EB8000476004EB4401E9
:1016300002EB81014E8004EB4400114601EB800077
:10164000C0F8088050460AF09FF90020A5E72DE970
:10165000F04180460D464FF0FF34E8B2FFF70AFF35
:10166000064616B90620BDE8F081F068FFF774FF62
:101670000446002C01DB102C01D30620F3E70AF00E
:101680007FF9074604EB44002A4931F92000401C49
:1016900020B938460AF078F90020E4E74FF0FF302F
:1016A00004EB4401234A22F82100002004EB44010A
:1016B00002EB8101486004EB440102EB81014880A8
:1016C00004EB440102EB8101886038460AF05CF9C2
:1016D0000020C8E72DE9F04F85B0894617464FF046
:1016E000FF3609F0FF00FFF7C5FE04461CB90620CF
:1016F00005B0BDE8F08F012F57D1E068FFF72CFF50
:101700000646002E01DB102E01D30620F0E70AF07A
:1017100037F9834606EB4600064931F92000401CA4
:1017200050B958460AF030F90620E1E73038024057
:10173000081502080C0000206E4800EB8605606862
:101740008047E0680090002002900320039006EBA1
:101750004600694901EB8000408820B1012807D08C
:1017600002280FD109E0654801900220029009E0AB
:10177000634801900120029004E06248019000203B
:10178000029000BF00BF6946A06801F037FC95F9E0
:1017900002000022052100F03BFE95F9020000F056
:1017A00075FE58460AF0F0F81CE0CFB9D4F80CA04A
:1017B0005046FFF7D1FE8046B8F1000F02DBB8F1CA
:1017C000100F01D3002002E04A4800EB88000546D4
:1017D0000DB906208CE795F9020000F064FE01E0E7
:1017E000062085E7002083E710B50022464947A080
:1017F0000AF0D4FC0446204610BD70B505462846C4
:10180000FFF7AAFE044604EB44003B4901EB8000CD
:10181000406858B104EB44020B4603EB8202906827
:1018200004EB440203EB82025168884700BF70BD9D
:1018300010B508F0CBF9012001F0A5FD08F0DBF9A7
:1018400010BD10B508F0C2F9022001F09CFD08F0AF
:10185000D2F910BD10B508F0B9F9042001F093FDDC
:1018600008F0C9F910BD10B508F0B0F9082001F072
:101870008AFD08F0C0F910BD10B508F0A7F91020D6
:1018800001F081FD08F0B7F910BD10B508F09EF920
:10189000202001F078FD402001F075FD802001F04E
:1018A00072FD4FF4807001F06EFD4FF4007001F096
:1018B0006AFD08F0A0F910BD10B508F087F94FF4E3
:1018C000806001F060FD4FF4006001F05CFD4FF4BA
:1018D000805001F058FD4FF4005001F054FD4FF4DA
:1018E000804001F050FD4FF4004001F04CFD08F045
:1018F00082F910BD182002080C0000200000111011
:1019000000002110000031105820020870696E009C
:1019100070B506460D46F46B286860600021A16131
:101920000C2161610021E161287900F00F00082895
:1019300002D0092807D102E00021A16006E04FF49F
:101940008051A16002E00021A16000BF00BF2879A2
:10195000C0F3011010B1012807D102E00021E160BD
:1019600006E04FF40051E16002E00021E16000BFB9
:1019700000BF2879C0F3811020B1012805D00228CA
:101980000BD106E0002121610AE04FF4C061216122
:1019900006E04FF48061216102E00021216100BF77
:1019A00000BF204605F065FF08B1012070BD002092
:1019B000FCE7F0B503460C46D96B102C13D0112C64
:1019C00025D191F9400000F01F060125B540D44E05
:1019D000470946F8275000BF0868C06820F020007B
:1019E0000D68E86013E091F9400000F01F06012542
:1019F000B5404609B60006F1E026C6F8005100BF22
:101A00000868C06840F020000D68E86000BF00BFB3
:101A10000020F0BD02460B46D16B00BF086800688D
:101A2000C0F3C0100028F9D0086843600120704757
:101A30000146CA6B4FF0FF3013681B68C3F34013B5
:101A400013B113685B68D8B2704710B5B54C08F095
:101A5000BDF820680068C0F3401060B12068C0681D
:101A600000F0200038B10121AF480AF05AFF6FF0B2
:101A700020002168086008F0BEF810BD10B5AB4C1E
:101A800008F0A4F820680068C0F3401060B1206836
:101A9000C06800F0200038B10121A5480AF041FFDC
:101AA0006FF020002168086008F0A5F810BD10B59F
:101AB000A04C08F08BF820680068C0F3401060B1BB
:101AC0002068C06800F0200038B101219A480AF06F
:101AD00028FF6FF020002168086008F08CF810BD26
:101AE00010B586B0044695492068884231D100BFC0
:101AF000002000909248006840F010009049086073
:101B00000846006800F01000009000BF00BF00BF52
:101B1000002000908A481438006840F0010088498D
:101B2000143908600846006800F00100009000BF0A
:101B300000BF4FF4C060019002200290012003908A
:101B4000032004900720059001A97E4801F056FA71
:101B50006AE07D492068884232D100BF00200090B1
:101B60007748001F006840F400307549091F08607D
:101B70000846006800F40030009000BF00BF00BFBE
:101B8000002000906E481438006840F008006C494E
:101B9000143908600846006800F00800009000BF93
:101BA00000BF6020019002200290012003900320DA
:101BB00004900720059001A9644801F01FFA33E062
:101BC0006349206888422FD100BF002000905C4804
:101BD000006840F020005A4908600846006800F09C
:101BE0002000009000BF00BF00BF002000905448BC
:101BF0001438006840F00400514914390860084660
:101C0000006800F00400009000BF00BFC0200190F9
:101C100002200290012003900320049008200590E8
:101C200001A94C4801F0EAF906B010BD10B5044610
:101C30004249206888420BD14148006820F01000DA
:101C40003F4908604FF4C0613E4801F0CAFA1EE007
:101C50003D49206888420CD13948001F006820F4B3
:101C600000303749091F08606021384801F0B9FA8F
:101C70000DE037492068884209D13148006820F0DA
:101C800020002F490860C021324801F0AAFA10BD97
:101C90001CB5314903C9CDE90001224C2748206019
:101CA000252084F840002D481F4908640846DDE9D6
:101CB0000012C0E91112234640F2031228A10AF0D3
:101CC0000FFE1A4C20482060262084F8400023484C
:101CD000174908640846DDE90012C0E911124FF403
:101CE000FA3013494864234640F203121EA11048FB
:101CF0000AF0F6FD0F4C16482060472084F840009B
:101D000016480D4908640846DDE90012C0E91112C1
:101D1000234640F2031216A10AF0E2FD00201CBD8A
:101D200080E100E0D8B200201CB3002070B3002096
:101D3000B4B3002008B400204CB4002000100140CF
:101D4000443802400000024000440040000C0240C1
:101D5000001401400008024084200208702002089C
:101D60007561727431000000756172743200000098
:101D7000756172743600000000B587B000BF0020A6
:101D800001904948006840F08000474908600846D3
:101D9000006800F08000019000BF00BF00BF00207D
:101DA00001900846006840F080000860084600681E
:101DB00000F08000019000BF00BF102002901120B1
:101DC0000390012004900320059002A9374801F0F8
:101DD00015F9202002901120039001200490032087
:101DE000059002A9314801F009F9012210212F487C
:101DF00001F0A7FA012220212C4801F0A2FA07B035
:101E000000BD21B12022294B18331A6004E04FF4A1
:101E10000012264B18331A60704721B11022234B51
:101E200018331A6004E04FF48012204B18331A6004
:101E3000704701461D481030006800F0200008B1CE
:101E4000012070470020FCE7014618481030006868
:101E500000F0100008B1012070470020FCE74FF0AF
:101E6000E022526942F21073B2FBF3F250434FF09A
:101E7000E022916900BF4FF0E02292698A1A824203
:101E8000F9D3704710B5FFF777FF78220021084893
:101E900007F001FF07480649486707A104480AF010
:101EA00020F9002010BD000030380240001C024024
:101EB000A0B400208C2002086932633000000000CA
:101EC00010B500219B200AF0BBF900219A200AF0EE
:101ED000B7F900219C200AF0B3F900219D200AF0F7
:101EE000AFF901219B200AF0B6F901219A200AF0EE
:101EF000B2F901219C200AF0AEF901219D200AF0DF
:101F0000AAF910BD10B5FFF7DBFF002010BD0000DF
:101F100070B504460D466148614908600846456051
:101F200000218160C460016102F003FC60205D4912
:101F30000860204604EBD07149105A4A51600220D3
:101F4000114688600022564803F085FE0422554958
:101F5000534803F080FE0021514802F028FC042180
:101F60004F4802F024FC4FF080404D49086008467D
:101F700002F0DFFB00224B49494803F06CFE0021D0
:101F8000474802F014FC70BD10B586B0044600BF8F
:101F9000002000904448006840F4803042490860C6
:101FA0000846006800F48030009000BF00BF00BF0A
:101FB000002000903C481438006840F010003A4976
:101FC000143908600846006800F01000009000BF57
:101FD00000BF00BF002000900846006840F01000DD
:101FE00008600846006800F01000009000BF00BFC5
:101FF00060200190022002900120039003200490B1
:10200000059001A9294800F0F9FF00BF00200090C9
:102010002548001F006840F001002349091F08609F
:102020000846006800F00100009000BF00BF00BF3C
:10203000002000901C481438006840F001001A4944
:10204000143908600846006800F00100009000BFE5
:1020500000BF4FF40040019001200390059001A9BA
:10206000134800F0CBFF06B010BD4FF0804148632D
:1020700070470A4A50639163704710B5082140F2D7
:10208000CF70FFF745FF4FF496710846FFF7F1FF59
:102090004FF49670FFF7E9FF002010BD00400140AB
:1020A00018B5002054B5002044380240001002400A
:1020B000000002403F48006840F470003D4908605D
:1020C0003D48006840F001003B49086000203A4963
:1020D00008310860384800683849084036490860C7
:1020E0003748091D0860081F006820F48020091F78
:1020F0000860002030490C3108604FF000602D4925
:1021000080390860704770B5002000220223002447
:102110000221294D08352D6805F00C0020B1042856
:1021200006D0082834D107E0264D274E356033E02D
:10213000264D254E35602FE01F4D2D1D2D68C5F312
:1021400080541D4D2D1D2D6805F03F0154B11F4DCC
:10215000B5FBF1F5184E361D3668C6F3881605FB3B
:1021600006F209E0174DB5FBF1F5134E361D366842
:10217000C6F3881605FB06F20F4D2D1D2D68C5F31D
:1021800001456D1C6B00B2FBF3F50F4E356003E0AB
:102190000C4D0D4E356000BF00BF074D08352D6852
:1021A000C5F303150A4E705D074D2D68C540064EF8
:1021B000356070BD88ED00E000380240FFFFF6FE9C
:1021C000103000240024F400CC00002040787D0171
:1021D000AC2002080948804709480047FEE7FEE7AF
:1021E000FEE7FEE7FEE7FEE7FEE7FEE7FEE7FEE7C7
:1021F00004480549054A064B70470000B520000811
:10220000AD010008F8500120F8560120F8520120D5
:10221000F8520120704770B50446634800684FF4D7
:102220007A71B0FBF1F5284600F068F900222146EA
:10223000501E00F0EDF8002070BD10B55B4800683E
:1022400040F40070594908600846006840F4806016
:1022500008600846006840F480700860032000F0C1
:10226000C5F80F20FEF7FEFFFFF714F8002010BDA1
:10227000704710B54FF0FF304D49086000200860EE
:10228000401E091D086000200860401E48491039A2
:10229000086000200860401E091D086000200860DA
:1022A000401E091D086000200860FFF7E1FF0020C4
:1022B00010BD40480068401C3E49086070473D48DA
:1022C0000068704731B5FFF7FAFF0546009C601CB7
:1022D00000B1641C00BFFFF7F2FF401BA042FAD31D
:1022E00038BD4FF0E020006920F002004FF0E021FF
:1022F000086170474FF0E020006940F002004FF0A5
:10230000E021086170472C4870472C480068000C99
:1023100070472A480068C0F30B00704727484068A0
:1023200040F001002549486070472448406820F08B
:1023300001002249486070472048406840F0020090
:102340001E49486070471D48406820F002001B4944
:10235000486070471948406840F0040017494860D9
:1023600070471648406820F00400144948607047E0
:102370000120134908607047002011490860704728
:102380001049096801600F49091D096841600D493C
:10239000083109688160704701200B490862704765
:1023A0000020094908627047CC000020003C024030
:1023B00020380240D000002000020701002004E085
:1023C00000042742107AFF1F0000274210B50028A2
:1023D00007DA0A07140ED94A00F00F031B1FD45462
:1023E00003E00A07130ED64A135410BD00BF00F0D5
:1023F0000702D24B0C3B19684FF6FF031940D14B33
:102400000B4343EA0221CD4B0C3B196000BF7047E0
:102410002DE9F05F80460D461646002700F087F94B
:10242000074639462A46334601F00700C0F1070A3D
:10243000BAF1040F02D94FF0040A01E0C0F1070A13
:10244000D14600F1040ABAF1070F02D24FF0000A98
:1024500001E0A0F1030AD4464FF0010A0AFA09FA92
:10246000AAF1010A0AEA020A0AFA0CFA4FF0010B71
:102470000BFA0CFBABF1010B0BEA030B4AEA0B0462
:1024800021464046FFF7A2FFBDE8F09F00BF00F0E5
:102490001F02012191404209920002F1E022C2F89C
:1024A000001100BF704700BF00F01F0201219140E2
:1024B000A54A430942F8231000BF704700BF00BF80
:1024C00000BF00BF00BFBFF34F8F00BF00BF00BF02
:1024D0009A480C38006800F4E0609A490843001DEF
:1024E00096490C39086000BF00BF00BFBFF34F8F93
:1024F00000BF00BF00BF00BF00BFFDE770B50446CE
:102500002546681EB0F1807F01D301200FE0681ED0
:102510004FF0E02148610F214FF0FF30FFF756FFE9
:1025200000204FF0E021886107200861002070BD85
:1025300000BF00BF00BFBFF35F8F00BF00BF00BF81
:102540007E480C30006820F480307C490C310860F3
:1025500000207A497C310860704740F00101774AD9
:102560007C32116075490C31096841F48031734A3D
:102570000C32116000BF00BF00BFBFF34F8F00BF20
:1025800000BF00BF00BF00BF00BFBFF36F8F00BF21
:1025900000BF00BF70474178684A803211600178FF
:1025A000F9B1121D41681160017B0907C27A41EA45
:1025B0000261827A41EAC241427B41EA8241827BE6
:1025C00041EA4241C27B41EA0241427A41EA0221A8
:1025D000027A41EA420102781143584A8832116076
:1025E00005E00021554A84321160121D11607047C8
:1025F00010B500F09CF810BD2DE9F04304462046CC
:10260000002808DA4D4F00F00F0CACF1040C17F85D
:102610000C703F0902E04A4F3F5C3F093D460E46C1
:1026200006F00700C0F10708B8F1040F02D94FF017
:10263000040801E0C0F10708C44600F10408B8F13D
:10264000070F02D24FF0000801E0A0F1030847464F
:1026500025FA07F84FF0010909FA0CF9A9F1010967
:1026600008EA0908C2F800804FF0010808FA07F8E4
:10267000A8F1010808EA0508C3F8008000BFBDE81A
:10268000F08300BF00F01F02012191402E4A8032EA
:10269000430942F8231000BF704710B501460846B1
:1026A000294A8032430952F8232000F01F040123F5
:1026B000A3401A400AB1012200E00022104610BDDA
:1026C00000BF00F01F0201219140204A430942F857
:1026D000231000BF704710B5014608461B4A8032E0
:1026E000430952F8232000F01F040123A3401A409D
:1026F0000AB1012200E00022104610BD042808D1D2
:102700004FF0E021096941F004014FF0E02211612E
:1027100007E04FF0E021096921F004014FF0E022C9
:1027200011617047704710B5FFF7FCFF10BD0348FB
:102730000C380068C0F302207047000018ED00E07C
:1027400000E400E00000FA0580E100E080E200E043
:102750000146087810381823B0FBF3F2FB48805C80
:10276000C865032A05D908686FF30900001D88654C
:1027700003E008686FF309008865886D70470146BB
:1027800000208A6A8B69CBB932B1012A0DD0022AA6
:1027900003D0032A10D10EE000BFCB6A03F0807390
:1027A000B3F1807F00D1012007E0CB6AB3F1C07F95
:1027B00000D1012001E000E000BF34E08B69B3F5F7
:1027C000005F1AD132B1012A07D0022A03D0032AAE
:1027D00011D10AE000BF01200EE0CB6A03F0807344
:1027E000B3F1807F00D1012006E0CB6AB3F1C07F56
:1027F00000D1012000E000BF15E032B1012A05D070
:10280000022A04D0032A0CD103E000BF00BF01203C
:1028100008E0CB6A03F08073B3F1807F00D1012020
:1028200000E000BF00BF70472DE9F04104460025DD
:10283000FFF745FD074614B90120BDE8F081606A45
:1028400000B100BF00BF002084F8340000BF0220A8
:1028500084F835002068006820F0010021680860D5
:102860000AE0FFF72CFDC01B052805D92020606574
:10287000032084F83500E0E72068006800F00100DC
:102880000028EED120680568B1480540D4E901016F
:102890000843E16808432169084361690843A16965
:1028A0000843E1690843216A08430543606A042834
:1028B00003D1D4E90B010843054320680560206873
:1028C000456925F00705606A0543606A04280DD153
:1028D000A06A0543E06A48B12046FFF750FF28B1DF
:1028E00040206065012084F83500A6E72068456136
:1028F0002046FFF72DFF064694F85C103F208840E5
:10290000B06000206065012084F83500002094E765
:1029100070B504460CB9012070BD94F8350002284A
:1029200000D1F9E72068006820F001002168086004
:10293000002021680860216848602168886021685B
:10294000C860216808612120216848612046FFF79E
:10295000FFFE054694F85C103F208840A8600020E8
:10296000606584F8350000BF84F8340000BF00BF04
:10297000D2E730B50468246824F4802405682C600C
:10298000046863608468402C04D10468A260046811
:10299000E16003E00468A1600468E26030BD2DE9F5
:1029A000F04104460D4616461F464FF0000800BF92
:1029B00094F83400012802D10220BDE8F081012002
:1029C00084F8340000BF94F83500012811D10220AA
:1029D00084F83500002060653B4632462946204693
:1029E000FFF7C7FF2068006840F001002168086019
:1029F00006E000BF002084F8340000BF4FF002085A
:102A00004046DAE72DE9F04704460D4616461F46D4
:102A10004FF00008D4F8589000BF94F83400012813
:102A200002D10220BDE8F087012084F8340000BF05
:102A300094F8350001282BD1022084F835000020BD
:102A400060653B46324629462046FFF792FF94F8E0
:102A50005C103F208840C9F808002068006840F0FA
:102A60001600216808602068406940F080002168F5
:102A70004861206C28B12068006840F00800216897
:102A800008602068006840F001002168086006E0E6
:102A900000BF002084F8340000BF4FF00208404619
:102AA000C0E770B50446A56DFFF709FC064694F82B
:102AB0003500022808D08020606500BF002084F81F
:102AC000340000BF012070BD2068006820F01600AF
:102AD000216808602068406920F080002168486112
:102AE000206C08B9A06C28B12068006820F00800AC
:102AF000216808602068006820F0010021680860F3
:102B00000FE0FFF7DCFB801B05280AD92020606559
:102B100000BF002084F8340000BF032084F8350093
:102B2000D1E72068006800F001000028E9D194F89E
:102B30005C103F208840A86000BF002084F834006B
:102B400000BF012084F835000020BCE7C420020843
:102B50003F8010F0014691F83500022803D0802014
:102B6000486501207047052081F835000868006835
:102B700020F001000A6810600020F3E72DE9F05F03
:102B80000446884617464FF0000AFFF798FB834635
:102B900094F83500022809D08020606500BF00202D
:102BA00084F8340000BF0120BDE8F09F2068006871
:102BB00000F4807020B14FF4807060650120F3E76D
:102BC000B8F1000F05D194F85C10202000FA01F94B
:102BD00004E094F85C10102000FA01F9A56D2E684D
:102BE00042E0781C90B12FB1FFF769FBA0EB0B001E
:102BF000B8420BD92020606500BF002084F8340063
:102C000000BF012084F835000320CDE72E6894F83A
:102C10005C1008208840304040B1606D40F00100F9
:102C2000606594F85C1008208840A86094F85C10F7
:102C300001208840304040B1606D40F00200606586
:102C400094F85C1001208840A86094F85C1004207F
:102C50008840304040B1606D40F00400606594F8F9
:102C60005C1004208840A86006EA090020B9606D65
:102C700000F001000028B4D0606DA0B1606D00F0DC
:102C8000010080B12046FFF70CFF94F85C10302063
:102C90008840A86000BF002084F8340000BF0120F5
:102CA00084F8350080E7B8F1000F0DD194F85C107E
:102CB00030208840A86000BF002084F8340000BFA6
:102CC000012084F8350004E094F85C10102088405E
:102CD000A860504668E7F8B5044600200090C64852
:102CE00000684FF41651B0FBF1F7A56D2E6894F80B
:102CF0005C1008208840304098B12068006800F0DF
:102D0000040070B12068006820F0040021680860A9
:102D100094F85C1008208840A860606D40F00100C5
:102D2000606594F85C1001208840304068B12068EC
:102D3000406900F0800040B194F85C1001208840A8
:102D4000A860606D40F00200606594F85C1004209B
:102D50008840304068B12068006800F0020040B14F
:102D600094F85C1004208840A860606D40F0040076
:102D7000606594F85C1010208840304078B320687B
:102D8000006800F0080050B394F85C1010208840F0
:102D9000A8602068006800F4802080B12068006886
:102DA00000F4002028B9206CC8B12046216C884767
:102DB00015E0A06C98B12046A16C88470FE0206810
:102DC000006800F4807028B92068006820F00800CE
:102DD00021680860206C10B12046216C884794F867
:102DE0005C10202088403040002865D020680068B2
:102DF00000F0100000285FD094F85C10202088407C
:102E0000A86094F83500052828D12068006820F0D3
:102E10001600216808602068406920F08000216861
:102E20004861206C08B9A06C28B12068006820F0C7
:102E300008002168086094F85C103F208840A86072
:102E400000BF002084F8340000BF012084F8350062
:102E5000206D10B12046216D8847F8BD20680068BC
:102E600000F4802080B12068006800F4002028B9B8
:102E7000606C10B12046616C88471DE0E06BD8B1F2
:102E80002046E16B884717E02068006800F48070F6
:102E900068B92068006820F010002168086000BF51
:102EA000002084F8340000BF012084F83500E06B76
:102EB00010B12046E16B8847606D38B3606D00F05B
:102EC0000100F0B1052084F835002068006820F08A
:102ED00001002168086000BF0098401C0090B842C3
:102EE00000D905E02068006800F001000028F3D157
:102EF00000BF00BF002084F8340000BF012084F828
:102F00003500E06C10B12046E16C884700BFA4E7B3
:102F100010B50346002400BF93F83400012801D106
:102F2000022010BD012083F8340000BF93F8350063
:102F3000012814D1062910D2DFE801F003050709A2
:102F40000B0DDA630AE01A6408E05A6406E09A643A
:102F500004E0DA6402E01A6500E000BF00E001244A
:102F600000BF002083F8340000BF2046D9E70246A6
:102F7000002300BF92F83400012801D102207047DD
:102F8000012082F8340000BF92F83500012824D1D6
:102F900007291FD2DFE801F004070A0D10131600FD
:102FA0000020D06318E00020106415E00020506479
:102FB00012E0002090640FE00020D0640CE00020BC
:102FC000106509E00020D063106450649064D06400
:102FD000106501E0012300BF00E0012300BF0020D5
:102FE00082F8340000BF1846C9E7014691F8350061
:102FF00070470146486D7047CC000020F8B5024686
:103000000B460025002400200021E6E0012606FAF8
:1030100001F51E6806EA0504AC4273D15E68022E13
:1030200002D05E68122E13D1CF0802F1200656F8A6
:1030300027004E07F70E0F26BE40B0434F07FF0E86
:103040001E69BE403043CF0802F1200646F8270033
:1030500010684F000326BE40B0431E7906F00306F9
:103060004F00BE40304310605E68012E08D05E689D
:10307000022E05D05E68112E02D05E68122E13D18A
:1030800090684F000326BE40B0434F00DE68BE404C
:1030900030439060506801268E40B0431E79C6F3DD
:1030A00000168E4030435060D0684F000326BE406B
:1030B000B0434F009E68BE403043D0605E6806F06B
:1030C0008056B6F1805FA8D100BF00260096B54EAD
:1030D000366846F48046B34F3E603E46366806F496
:1030E0008046009600BF00BFAF4E8F0856F82700FD
:1030F0008E07370F0F26BE40B043AC4EB24202D10E
:1031000000262EE068E0AA4EB24201D1012628E056
:10311000A84EB24201D1022623E0A74EB24201D10D
:1031200003261EE0A54EB24201D1042619E0A44EAA
:10313000B24201D1052614E0A24EB24201D10626C8
:103140000FE0A14EB24201D107260AE09F4EB242E3
:1031500001D1082605E09E4EB24201D1092600E0C9
:103160000A268F073F0FBE4030438F4E8F0846F828
:103170002700984E3068A0435E6806F48036B6F5A6
:10318000803F00D12043934E3060361D3068A0430D
:103190005E6806F40036B6F5003F00D120438D4E40
:1031A000361D3060361D3068A0435E6806F4801618
:1031B000B6F5801F00D12043864E08363060361D9C
:1031C0003068A0435E6806F40016B6F5001F00D113
:1031D0002043804E0C363060491C1029FFF416AF96
:1031E000F8BDF0B50C4600250022002300219CE02C
:1031F000012606FA01F504EA0502AA427DD1066815
:103200004FEA410C032707FA0CF7BE430660CF08CC
:1032100000F1200656F827604F074FEAD76C0F27BA
:1032200007FA0CF7BE434FEAD10C00F1200747F82C
:103230002C6086684FEA410C032707FA0CF7BE435F
:103240008660476801268E40B7434760C6684FEAEC
:10325000410C032707FA0CF7BE43C660524E8F0895
:1032600056F827308E07370F0F26BE4033404F4E9B
:10327000B04201D100262DE04D4EB04201D10126D1
:1032800028E04C4EB04201D1022623E04A4EB04223
:1032900001D103261EE0494EB04201D1042619E0B7
:1032A000474EB04201D1052614E0464EB04201D14E
:1032B00006260FE0444EB04201D107260AE0434EF5
:1032C000B04201D1082605E0414EB04201D10926A5
:1032D00000E00A268F073F0FBE409E4224D18E0792
:1032E000370F0F2606FA07F32F4E8F0856F8276080
:1032F0009E432D4F4FEA910C00E015E047F82C60FB
:10330000344E36689643334F3E603E1D36689643D2
:103310003F1D3E603E1D366896433F1D3E603E1D8C
:10332000366896433F1D3E60491C1029FFF460AF8C
:10333000F0BD024613690B400BB1012000E00020F4
:1033400070470AB1816101E00B04836170474269F3
:103350004A404261704708B502464FF48030009001
:103360000098084300900098D061D1610098D06126
:10337000D0690090D06900F4803008B1002008BD09
:103380000120FCE7704710B504461248143000686D
:10339000204028B10F48143004602046FEF72DFA73
:1033A00010BD0000443802400838014000000240CF
:1033B0000004024000080240000C024000100240DD
:1033C0000014024000180240001C0240002002408D
:1033D00000240240003C014010B500240120B34904
:1033E0000860FEF76CFF044607E0FEF768FF001B6D
:1033F000B0F57A7F01D9032010BDAD484068C0F315
:10340000C0000028F1D00020F6E710B5002400200D
:10341000A6490860FEF753FF044607E0FEF74FFF9A
:10342000001BB0F57A7F01D9032010BDA048406889
:10343000C0F3C0000028F1D100BFF6E701209B498E
:10344000A4394862704700209849A43948627047FF
:103450009748006800F44040704738B5054600249E
:1034600000BF002000909348006840F080509149D0
:1034700008600846006800F08050009000BF00BF60
:103480008C483838006800F00C0008284CD0002028
:1034900089490866FEF713FF044606E0FEF70FFFB2
:1034A000001B022801D9032038BD8248403800683B
:1034B000C0F340600028F1D100BF00907C48006854
:1034C00020F4404028437A4908600846006800F428
:1034D0004040009000BF00BF012077490866FEF71A
:1034E000EEFE044606E0FEF7EAFE001B022801D9C4
:1034F0000320D9E76F4840380068C0F340600028D7
:10350000F1D0FEF7DCFE044607E0FEF7D8FE001B14
:10351000B0F57A7F01D90320C6E765484068C0F35B
:1035200080300028F1D001E00120BDE70020BBE79A
:1035300038B5002400BF002000905E48006840F0CD
:1035400080505C4908600846006800F08050009098
:1035500000BF00BF01205549A4390864FEF7AFFE43
:10356000044607E0FEF7ABFE001BB0F57A7F01D9F9
:10357000032038BD4E48406800F48030B0F5803FED
:10358000F0D101204949A4394864FEF798FE044669
:1035900007E0FEF794FE001BB0F57A7F01D9032007
:1035A000E7E74348406800F40030B0F5003FF0D151
:1035B0000020DEE738B5002400BF002000903D4821
:1035C000006840F080503B4908600846006800F001
:1035D0008050009000BF00BF00203449A4394864E7
:1035E000FEF76DFE044607E0FEF769FE001BB0F52E
:1035F0007A7F01D9032038BD2D48406800F400309F
:10360000B0F5003FF0D000202849A4390864FEF747
:1036100056FE044607E0FEF752FE001BB0F57A7F27
:1036200001D90320E7E72248406800F48030B0F574
:10363000803FF0D00020DEE718B502460B4600219F
:1036400000BF002000901B48006840F08050194CDB
:1036500020602046006800F08050009000BF00BF4E
:103660001348406840F44020114C606020460068D8
:1036700040F4402020602046016840F6034081432A
:103680001143204601600D48006840F004000B4CD7
:103690002060012B01D130BF00E020BF0748006847
:1036A00020F00400054C2060002018BDA4000E424C
:1036B00000700040403802400000474210ED00E03A
:1036C0000020704738B504460CB9012038BD207879
:1036D00000F00100002874D0F848006800F00C00E9
:1036E00004280DD0F548006800F00C00082813D11C
:1036F000F248001F006800F48000B0F5800F0BD185
:10370000EE4808380068C0F34040002859D060688F
:10371000002856D10120D9E700BF6068B0F5803F8E
:1037200008D1E6480838006840F48030E349083999
:1037300008601EE06068B0F5A02F0DD1DF480838A2
:10374000006840F48020DD490839086008460068B8
:1037500040F4803008600CE0D8480838006820F455
:103760008030D649083908600846006820F4802077
:10377000086000BF606890B1FEF7A1FD054606E055
:10378000FEF79DFD401B642801D903209EE7CB482E
:1037900008380068C0F340400028F1D011E0FEF77F
:1037A0008EFD054606E0FEF78AFD401B642801D920
:1037B00003208BE7C14808380068C0F34040002868
:1037C000F1D1207800F0020002285FD1BB480068E8
:1037D00000F00C0058B1B948006800F00C0008284F
:1037E0001CD1B648001F006800F48000B0B9B3488F
:1037F00008380068C0F3400020B1E068012801D01B
:10380000012063E7AD480838006820F0F80021691E
:1038100040EAC100A9490839086037E0E06800B310
:103820000120A7490860FEF74AFD054606E0FEF7BD
:1038300046FD401B022801D9032047E79F4808386E
:103840000068C0F340000028F1D09C4808380068A8
:1038500020F0F800216940EAC10098490839086061
:1038600014E0002096490860FEF729FD054606E0B1
:10387000FEF725FD401B022801D9032026E78F48CB
:1038800008380068C0F340000028F1D1207800F02B
:10389000080008282CD16069A8B101208949086076
:1038A000FEF70DFD054606E0FEF709FD401B022868
:1038B00001D903200AE781486C300068C0F340005A
:1038C0000028F1D014E000207E490860FEF7F7FCE4
:1038D000054606E0FEF7F3FC401B022801D9032051
:1038E000F4E676486C300068C0F340000028F1D15F
:1038F000207800F0040004287FD100BF0020009051
:103900006E483830006840F080506C4938310860AB
:103910000846006800F08050009000BF00BF6A4871
:10392000006840F4807068490860FEF7C8FC0546EE
:1039300006E0FEF7C4FC401B022801D90320C5E6BF
:103940006148006800F480700028F2D000BFA068D1
:10395000012808D159486830006840F001005749F3
:10396000683108601DE0A06805280DD15348683013
:10397000006840F00400514968310860084600685A
:1039800040F0010008600CE04C486830006820F00E
:1039900001004A49683108600846006820F00400C8
:1039A000086000BFA068A0B1FEF789FC054608E0EA
:1039B000FEF785FC401B41F28831884201D9032083
:1039C00084E63E4868300068C0F340000028EFD02D
:1039D00013E0FEF774FC054608E0FEF770FC401BA0
:1039E00041F28831884201D903206FE633486830BC
:1039F0000068C0F340000028EFD1A069B8B32F4899
:103A0000006800F00C00082860D0A06902283ED1B0
:103A100000202B490866FEF752FC054606E0FEF73B
:103A20004EFC401B022801D903204FE623480838EA
:103A30000068C0F340600028F1D1D4E907010843D1
:103A4000616A40EA81110122A06AC2EB500041EA9A
:103A500000412C20005D41EA00601849091F086000
:103A6000012017490866FEF72AFC054607E02FE00B
:103A7000FEF725FC401B022801D9032026E60F484B
:103A800008380068C0F340600028F1D020E0002032
:103A90000B490866FEF713FC054606E0FEF70FFC2F
:103AA000401B022801D9032010E6044808380068AA
:103AB000C0F340600028F1D10AE007E00838024076
:103AC00000004742800E4742007000400120FDE5A3
:103AD0000020FBE52DE9F047002400250026A14643
:103AE000FB48006800F00C0020B1042805D008282D
:103AF0003AD105E0DFF8DC9339E0DFF8DC9336E01B
:103B0000F348001F006800F03F04F148001F006800
:103B100000F4800078B1F048ED49091F0968C1F34D
:103B20008811A0FB0170014622460023384618F098
:103B3000BFFA05460EE0E748E549091F0968C1F3E9
:103B40008811A0FB0170014622460023384618F078
:103B5000AFFA0546DE48001F0068C0F30140401C74
:103B60004600B5FBF6F902E0DFF8689300BF00BF3E
:103B70004846BDE8F08770B504460D460CB90120F3
:103B800070BDD648006800F00F00A84209D2D349A2
:103B90000D700846006800F00F00A84201D0012017
:103BA000EEE7207800F0020002281DD1207800F016
:103BB0000400042805D1C648006840F4E050C44918
:103BC0000860207800F00800082805D1C048006887
:103BD00040F46040BE490860BD48006820F0F00035
:103BE000A1680843BA490860207800F00100A8B332
:103BF0006068012807D1B64808380068C0F3404023
:103C0000B8B90120BCE76068022802D060680328C8
:103C100007D1AF4808380068C0F3406048B90120B8
:103C2000AEE7AB4808380068C0F3400008B901208F
:103C3000A6E7A748006820F0030061680843A4498C
:103C40000860FEF73CFB064609E0FEF738FB801BE8
:103C500041F28831884202D9032091E707E09C486D
:103C6000006800F00C006168B0EB810FEDD19B485B
:103C7000006800F00F00A84209D998490D70084665
:103C8000006800F00F00A84201D0012078E72078FA
:103C900000F00400042807D18D48006820F4E050AB
:103CA000E16808438A490860207800F00800082885
:103CB00008D18748006820F46040216940EAC100CB
:103CC00083490860FFF706FF81490968C1F30311C2
:103CD000834A515CC840834908600F20FDF7C2FA4F
:103CE00000204DE770B586B006460C46154646BB2B
:103CF00000BF0020009076482830006840F00100A6
:103D00007349283108600846006800F001000090FF
:103D100000BF00BF8815019002200290032004908C
:103D200000200390059001A96F48FFF767F96848E4
:103D3000006820F0EC6044EA05010843644908602B
:103D400027E000BF0020009061482830006840F064
:103D500004005F49283108600846006800F004004C
:103D6000009000BF00BF4815019002200290032080
:103D7000049000200390059001A95C48FFF73EF9EC
:103D80005348006820F0784044EAC5010843504990
:103D9000086006B070BD01205549C8647047002016
:103DA0005349C86470474F480068704700B5FFF733
:103DB000FAFF47490968C1F382214E4A515CC84065
:103DC00000BD00B5FFF7EFFF41490968C1F342317B
:103DD000484A515CC84000BD0F2101603C49083988
:103DE000096801F48021B1F5802F03D14FF4A0219F
:103DF00041600DE036490839096801F48031B1F5B8
:103E0000803F03D14FF48031416001E000214160E7
:103E10002F490839096801F0010111B10121C16080
:103E200001E00021C1602A4908390968C1F3C401D1
:103E3000016127496831096801F00401042902D1B0
:103E4000052181600AE022496831096801F0010119
:103E500011B10121816001E0002181601C496C31B8
:103E6000096801F0010111B10121416101E0002166
:103E7000416117490839096801F08071B1F1807F0B
:103E800002D10221816101E0012181611049091FF4
:103E9000096801F48002C2610D49091F096801F037
:103EA0003F0202620A49091F0968C1F3881242628F
:103EB0000749091F096801F4403101F58031CA0B37
:103EC00082620349091F0968C1F30362C262704735
:103ED000083802400024F40040787D01003C024094
:103EE000AC200208CC000020000002400008024084
:103EF00000004742BC2002080F220260154A1268E7
:103F000002F003024260134A126802F0F00282607B
:103F1000104A126802F4E052C2600E4A126802F4BB
:103F20006042D20802610C4A126802F00F020A6075
:103F30007047704710B50748001D006800F080000A
:103F4000802805D1FFF7F5FF80200249891D087000
:103F500010BD000008380240003C02400022026808
:103F6000FE4B98420ED0B0F1804F0BD0FC4B9842E4
:103F700008D0FC4B984205D0FB4B984202D0FB4B3B
:103F8000984201D1012300E000231BB122F070020E
:103F90004B681A43F14B984220D0B0F1804F1DD0AE
:103FA000EF4B98421AD0EF4B984217D0EE4B984205
:103FB00014D0EE4B984211D0ED4B98420ED0ED4B01
:103FC00098420BD0EC4B984208D0EC4B984205D06D
:103FD000EB4B984202D0EB4B984201D1012300E019
:103FE00000231BB122F44072CB681A4302608B6835
:103FF000C3620B688362D94B984202D0DB4B984274
:1040000001D1012300E000230BB10B6903630123FD
:1040100043617047704710B504460CB9012010BDCC
:1040200094F8390028B9002084F838002046FFF7BA
:10403000F1FF022084F83900211D2068FFF78EFF70
:10404000012084F839000020E9E7704710B50446E4
:10405000022084F8390000BF2068006A41F2111183
:10406000084050B92068006A8910084028B92068C3
:10407000006820F001002168086000BF2046FFF7BB
:10408000E4FF002084F8390000BF84F8380000BF46
:1040900010BD0146022081F839000868006840F030
:1040A00001000A681060012081F839000020704783
:1040B0000146022081F8390000BF0868006A41F219
:1040C0001112104050B90868006A9210104028B9C7
:1040D0000868006820F001000A68106000BF012035
:1040E00081F839000020704701460868C06840F038
:1040F00001000A68D0600868006840F001000A68A2
:1041000010600020704701460868C06820F0010078
:104110000A68D06000BF0868006A41F211121040BE
:1041200050B90868006A9210104028B90868006801
:1041300020F001000A68106000BF0020704770473F
:1041400070B50446A56B012085F839002846FFF7B5
:10415000F6FF70BD704770B50446A56B012085F869
:1041600039002846FFF7F6FF70BD70B504460E46CD
:10417000154694F83900022800D170BD94F8390032
:10418000012806D116B9002D00DDF6E7022084F8DB
:1041900039007D48E169C863AFF25B00E169C8643A
:1041A000216801F12C022B463146E069FEF72AFC1A
:1041B0002068C06840F480702168C860206800688A
:1041C00040F00100216808600020D6E70146086839
:1041D000C06820F480700A68D06000BF0868006A78
:1041E00041F21112104050B90868006A9210104054
:1041F00028B90868006820F001000A68106000BF54
:10420000012081F8390000207047704710B504463E
:104210000CB9012010BD94F8390028B9002084F8A9
:1042200038002046FFF7F1FF022084F83900211DF5
:104230002068FFF793FE012084F839000020E9E7A9
:10424000704710B50446022084F8390000BF20688A
:10425000006A41F21111084050B92068006A8910C3
:10426000084028B92068006820F001002168086033
:1042700000BF2046FFF7E4FF002084F8390000BFAC
:1042800084F8380000BF10BD30B50023012404FAC3
:1042900001F3046A9C430462046A02FA01F52C43A8
:1042A000046230BD30B504460D460122294620681F
:1042B000FFF7EAFF29492068884203D02B4920688C
:1042C000884201D1012000E0002028B12068406C24
:1042D00040F40040216848642068006840F0010014
:1042E00021680860002030BD30B504460D4600222C
:1042F00029462068FFF7C8FF18492068884203D084
:104300001A492068884201D1012000E0002090B1C4
:1043100000BF2068006A41F21111084050B92068BE
:10432000006A8910084028B92068406C20F40040D9
:104330002168486400BF00BF2068006A41F2111183
:10434000084050B92068006A8910084028B92068E0
:10435000006820F001002168086017E000000140BB
:104360000004004000080040000C00400004014030
:104370000040014000440140004801400018004056
:10438000001C0040002000405741000800BF0020F2
:1043900030BD30B504460D4635B1042D0BD0082D87
:1043A00010D00C2D1CD114E02068C06840F0020031
:1043B0002168C86015E02068C06840F004002168EA
:1043C000C8600EE02068C06840F008002168C8603E
:1043D00007E02068C06840F010002168C86000E075
:1043E00000BF00BF012229462068FFF74DFFF949B1
:1043F0002068884203D0F8492068884201D1012012
:1044000000E0002028B12068406C40F400402168A2
:1044100048642068006840F00100216808600020BE
:1044200030BD30B504460D4635B1042D0BD0082DF6
:1044300010D00C2D1CD114E02068C06820F00200C0
:104440002168C86015E02068C06820F00400216879
:10445000C8600EE02068C06820F008002168C860CD
:1044600007E02068C06820F010002168C86000E004
:1044700000BF00BF002229462068FFF705FFD5498D
:104480002068884203D0D4492068884201D10120A5
:1044900000E0002090B100BF2068006A41F21111D5
:1044A000084050B92068006A8910084028B920687F
:1044B000406C20F400402168486400BF00BF2068C1
:1044C000006A41F21111084050B92068006A891051
:1044D000084028B92068006820F0010021680860C1
:1044E00000BF002030BD704770B50546AC6B0120A1
:1044F00084F83900206AA84202D10120207610E019
:10450000606AA84202D1022020760AE0A06AA8428E
:1045100002D10420207604E0E06AA84201D10820FC
:1045200020762046FFF7DFFF0020207670BD2DE9C2
:10453000F04104460E4615461F4694F839000228FD
:1045400001D1BDE8F08194F83900012806D115B9F0
:10455000002F00DDF5E7022084F8390036B1042E83
:104560001BD0082E30D00C2E5CD144E0AFF2870176
:10457000206AC163AFF23741206AC164216801F14A
:1045800034023B462946206AFEF73CFA2068C068A0
:1045900040F400702168C86045E0AFF2B301606A82
:1045A000C163AFF26341606AC164216801F13802FE
:1045B0003B462946606AFEF725FA2068C06840F449
:1045C00080602168C8602EE0AFF2E301A06AC16399
:1045D000AFF29341A06AC164216801F13C023B46FD
:1045E0002946A06AFEF70EFA2068C06840F4006011
:1045F0002168C86017E0AFF20F11E06AC163AFF243
:10460000BF41E06AC164216801F140023B4629468E
:10461000E06AFEF7F7F92068C06840F4805021682E
:10462000C86000E000BF00BF012231462068FFF7EC
:104630002BFE68492068884203D067492068884279
:1046400001D1012000E0002028B12068406C40F436
:104650000040216848642068006840F0010021683B
:10466000086000206DE730B504460D4635B1042DD5
:104670000BD0082D10D00C2D1CD114E02068C06880
:1046800020F400702168C86015E02068C06820F43C
:1046900080602168C8600EE02068C06820F4006077
:1046A0002168C86007E02068C06820F48050216855
:1046B000C86000E000BF00BF002229462068FFF765
:1046C000E3FD44492068884203D04349206888427A
:1046D00001D1012000E0002090B100BF2068006AF5
:1046E00041F21111084050B92068006A8910084051
:1046F00028B92068406C20F400402168486400BF5D
:1047000000BF2068006A41F21111084050B92068CA
:10471000006A8910084028B92068006820F001006C
:104720002168086000BF012084F83900002030BDF6
:10473000704710B504460CB9012010BD94F839003B
:1047400028B9002084F838002046FDF71DFC02201F
:1047500084F83900211D2068FFF700FC012084F84F
:1047600039000020E9E7704710B50446022084F8BC
:10477000390000BF2068006A41F21111084050B9A9
:104780002068006A8910084028B92068006820F075
:1047900001002168086000BF2046FFF7E4FF002009
:1047A00084F8390000BF84F8380000BF10BD30B570
:1047B00004460D46012229462068FFF765FD05499C
:1047C0002068884203D004492068884206D101202D
:1047D00005E000000000014000040140002028B175
:1047E0002068406C40F400402168486420680068FC
:1047F00040F0010021680860002030BD30B504465B
:104800000D46002229462068FFF73EFDFE4920683C
:10481000884203D0FD492068884201D1012000E090
:10482000002090B100BF2068006A41F211110840D9
:1048300050B92068006A8910084028B92068406C87
:1048400020F400402168486400BF00BF2068006A6F
:1048500041F21111084050B92068006A89100840DF
:1048600028B92068006820F001002168086000BFB6
:10487000012084F83900002030BD30B504460D46D3
:1048800035B1042D0BD0082D10D00C2D1CD114E007
:104890002068C06840F002002168C86015E0206808
:1048A000C06840F004002168C8600EE02068C0685D
:1048B00040F008002168C86007E02068C06840F048
:1048C00010002168C86000E000BF00BF0122294637
:1048D0002068FFF7D9FCCC492068884203D0CB4937
:1048E0002068884201D1012000E0002028B1206822
:1048F000406C40F40040216848642068006840F043
:10490000010021680860002030BD30B504460D4626
:1049100035B1042D0BD0082D10D00C2D1CD114E076
:104920002068C06820F002002168C86015E0206897
:10493000C06820F004002168C8600EE02068C068EC
:1049400020F008002168C86007E02068C06820F0F7
:1049500010002168C86000E000BF00BF00222946A7
:104960002068FFF791FCA8492068884203D0A74936
:104970002068884201D1012000E0002090B100BFF2
:104980002068006A41F21111084050B92068006A9D
:104990008910084028B92068406C20F40040216844
:1049A000486400BF00BF2068006A41F2111108404E
:1049B00050B92068006A8910084028B9206800684A
:1049C00020F001002168086000BF002030BD2DE903
:1049D000F04104460E4615461F4694F83900022859
:1049E00001D1BDE8F08194F83900012806D115B94C
:1049F000002F00DDF5E7022084F8390036B1042EDF
:104A00001BD0082E30D00C2E5CD144E0AFF22751E1
:104A1000206AC163AFF6D701206AC164216801F141
:104A200034023B462946206AFDF7ECFF2068C06847
:104A300040F400702168C86045E0AFF25351606AED
:104A4000C163AFF60311606AC164216801F13802E5
:104A50003B462946606AFDF7D5FF2068C06840F4F0
:104A600080602168C8602EE0AFF28351A06AC16304
:104A7000AFF63311A06AC164216801F13C023B46E4
:104A80002946A06AFDF7BEFF2068C06840F40060B8
:104A90002168C86017E0AFF2AF51E06AC163AFF6BA
:104AA0005F11E06AC164216801F140023B4629467A
:104AB000E06AFDF7A7FF2068C06840F480502168D5
:104AC000C86000E000BF00BF012231462068FFF748
:104AD000DBFB4D492068884203D04C49206888425E
:104AE00001D1012000E0002028B12068406C40F492
:104AF0000040216848642068006840F00100216897
:104B0000086000206DE730B504460D4635B1042D30
:104B10000BD0082D10D00C2D1CD114E02068C068DB
:104B200020F400702168C86015E02068C06820F497
:104B300080602168C8600EE02068C06820F40060D2
:104B40002168C86007E02068C06820F480502168B0
:104B5000C86000E000BF00BF002229462068FFF7C0
:104B600093FB29492068884203D02849206888425D
:104B700001D1012000E0002090B100BF2068006A50
:104B800041F21111084050B92068006A89100840AC
:104B900028B92068406C20F400402168486400BFB8
:104BA00000BF2068006A41F21111084050B9206826
:104BB000006A8910084028B92068006820F00100C8
:104BC0002168086000BF012084F83900002030BD52
:104BD000704710B504460CB9012010BD94F8390097
:104BE00028B9002084F838002046FFF7F1FF0220A2
:104BF00084F83900211D2068FFF7B0F9012084F8FE
:104C000039000020E9E700000000014000040140F5
:104C1000704710B50446022084F8390000BF2068B0
:104C2000006A41F21111084050B92068006A8910E9
:104C3000084028B92068006820F001002168086059
:104C400000BF2046FFF7E4FF002084F8390000BFD2
:104C500084F8380000BF10BD30B504460D4601226F
:104C600029462068FFF710FB2068006840F001002B
:104C700021680860002030BD30B504460D46002292
:104C800029462068FFF700FB00BF2068006A41F258
:104C90001111084050B92068006A8910084028B9ED
:104CA0002068006820F001002168086000BF002033
:104CB00030BD30B504460D4635B1042D0BD0082D5E
:104CC00010D00C2D1CD114E02068C06840F0020008
:104CD0002168C86015E02068C06840F004002168C1
:104CE000C8600EE02068C06840F008002168C86015
:104CF00007E02068C06840F010002168C86000E04C
:104D000000BF00BF012229462068FFF7BDFA2068D6
:104D1000006840F0010021680860002030BD30B517
:104D200004460D4635B1042D0BD0082D10D00C2DA6
:104D30001CD114E02068C06820F002002168C8601F
:104D400015E02068C06820F004002168C8600EE00B
:104D50002068C06820F008002168C86007E020686B
:104D6000C06820F010002168C86000E000BF00BFEC
:104D7000002229462068FFF787FA00BF2068006AF2
:104D800041F21111084050B92068006A89100840AA
:104D900028B92068006820F001002168086000BF81
:104DA000002030BD704770B50546AC6B012084F81B
:104DB0003900206AA84202D10120207610E0606A02
:104DC000A84202D1022020760AE0A06AA84202D1BD
:104DD0000420207604E0E06AA84201D10820207671
:104DE0002046FFF7DFFF0020207670BD2DE9F0415F
:104DF00004460D4616461F4694F83900022801D194
:104E0000BDE8F08194F83900012806D116B9002FC9
:104E100000DDF5E7022084F8390035B1042D1BD000
:104E2000082D30D00C2D5CD144E0AFF28501206A12
:104E3000C163AFF6F341206AC164226802F1340114
:104E40003B463246206AFDF7DDFD2068C06840F42D
:104E500000702168C86045E0AFF2B501606AC163C7
:104E6000AFF62351606AC164226802F138013B4603
:104E70003246606AFDF7C6FD2068C06840F4806075
:104E80002168C8602EE0AFF2E101A06AC163AFF60D
:104E90004F51A06AC164226802F13C013B46324690
:104EA000A06AFDF7AFFD2068C06840F4006021688B
:104EB000C86017E0AFF21111E06AC163AFF67F512D
:104EC000E06AC164226802F140013B463246E06A72
:104ED000FDF798FD2068C06840F480502168C860E4
:104EE00000E000BF00BF012229462068FFF7CCF98F
:104EF0002068006840F001002168086000207FE71A
:104F000030B504460D4635B1042D0BD0082D10D018
:104F10000C2D1CD114E02068C06820F400702168BA
:104F2000C86015E02068C06820F480602168C8600F
:104F30000EE02068C06820F400602168C86007E0C7
:104F40002068C06820F480502168C86000E000BF7D
:104F500000BF002229462068FFF796F900BF2068AD
:104F6000006A41F21111084050B92068006A8910A6
:104F7000084028B92068006820F001002168086016
:104F800000BF012084F83900002030BD704770B5A3
:104F900004460D460CB9012070BD94F8390028B9BB
:104FA000002084F838002046FFF7F0FF022084F844
:104FB0003900211D2068FEF7D1FF2068006820F02D
:104FC000080021680860206800682843216808609C
:104FD000012084F839000020DEE7704710B5044650
:104FE000022084F8390000BF2068006A41F21111E4
:104FF000084050B92068006A8910084028B9206824
:10500000006820F001002168086000BF2046FFF71B
:10501000E4FF002084F8390000BF84F8380000BFA6
:1050200010BD30B504460D46012200212068FFF76F
:105030002BF9012204212068FFF726F9FB4920689B
:10504000884203D0FA492068884201D1012000E05B
:10505000002028B12068406C40F40040216848647A
:10506000002030BD30B504460D46002211462068B0
:10507000FFF70AF9002204212068FFF705F9EB4940
:105080002068884203D0EA492068884201D1012083
:1050900000E0002090B100BF2068006A41F21111C9
:1050A000084050B92068006A8910084028B9206873
:1050B000406C20F400402168486400BF00BF2068B5
:1050C000006A41F21111084050B92068006A891045
:1050D000084028B92068006820F0010021680860B5
:1050E00000BF002030BD30B504460D462068C068C2
:1050F00040F002002168C8602068C06840F00400E9
:105100002168C860012200212068FFF7BDF8012254
:1051100004212068FFF7B8F8C4492068884203D00A
:10512000C3492068884201D1012000E0002028B155
:105130002068406C40F4004021684864002030BD85
:1051400030B504460D462068C06820F00200216892
:10515000C8602068C06820F004002168C860002290
:1051600011462068FFF790F8002204212068FFF71D
:105170008BF8AE492068884203D0AD492068884248
:1051800001D1012000E0002090B100BF2068006A3A
:1051900041F21111084050B92068006A8910084096
:1051A00028B92068406C20F400402168486400BFA2
:1051B00000BF2068006A41F21111084050B9206810
:1051C000006A8910084028B92068006820F00100B2
:1051D0002168086000BF002030BD70472DE9F04114
:1051E00004460D464FF000080026002714B90120A0
:1051F000BDE8F08194F8390028B9002084F838001F
:105200002046FFF7EAFF022084F839002068806812
:1052100020F0070021688860211D2068FEF79EFEAF
:105220002068D0F80880206886692068076A2868A6
:1052300040EA080840F203308643A969A86840EABA
:105240000120064340F60C4086434FF2F0008643AF
:10525000E969E86840EA0120064328690001296AF3
:1052600040EA0130064327F0220727F088076969E2
:10527000686840EA011007432068C0F80880206889
:10528000866120680762012084F839000020AFE7BA
:10529000704710B50446022084F8390000BF20682A
:1052A000006A41F21111084050B92068006A891063
:1052B000084028B92068006820F0010021680860D3
:1052C00000BF2046FFF7E4FF002084F8390000BF4C
:1052D00084F8380000BF10BD30B504460D4615B146
:1052E000042D0CD105E0012200212068FEF7CCFF3F
:1052F00010E0012204212068FEF7C6FF0AE0012227
:1053000000212068FEF7C0FF012204212068FEF77B
:10531000BBFF00BF00BF2068006840F001002168AB
:105320000860002030BD30B504460D4615B1042D8F
:105330000CD105E0002211462068FEF7A5FF10E021
:10534000002204212068FEF79FFF0AE00022114698
:105350002068FEF799FF002204212068FEF794FFE1
:1053600000BF00BF00BF2068006A41F21111084071
:1053700050B92068006A8910084028B92068006880
:1053800020F001002168086000BF002030BD30B56A
:1053900004460D4615B1042D18D10BE00122002161
:1053A0002068FEF771FF2068C06840F002002168A5
:1053B000C86022E0012204212068FEF765FF206812
:1053C000C06840F004002168C86016E00122002196
:1053D0002068FEF759FF012204212068FEF754FFE0
:1053E0002068C06840F002002168C8602068C0687A
:1053F00040F004002168C86000BF00BF206800685A
:1054000040F0010021680860002030BD30B504463E
:105410000D467DB9002211462068FEF735FF206851
:10542000C06820F002002168C86027E00000014049
:1054300000040140042D0BD1002204212068FEF756
:1054400023FF2068C06820F004002168C86015E0D0
:10545000002211462068FEF717FF00220421206871
:10546000FEF712FF2068C06820F002002168C860C3
:105470002068C06820F004002168C86000BF206870
:10548000006A41F21111084050B92068006A891081
:10549000084028B92068006820F0010021680860F1
:1054A00000BF012084F83900002030BD2DE9F04113
:1054B00004460E4617461D46DDF8188094F839005C
:1054C000022801D1BDE8F08194F83900012809D102
:1054D00007B125B9B8F1000F01DD0120F2E7022084
:1054E00084F8390026B1042E23D0182E7ED141E055
:1054F000AFF24D71206AC163FC49206AC164226821
:1055000002F1340143463A46206AFDF77BFA2068EF
:10551000C06840F400702168C8602068006840F0EE
:10552000010021680860012200212068FEF7ACFE1E
:105530005DE0AFF28D71606AC163EC49606AC1647D
:10554000226802F1380143462A46606AFDF75AFA9A
:105550002068C06840F480602168C86020680068E6
:1055600040F0010021680860012204212068FEF754
:105570008BFE3CE0AFF2D171206AC163DB49206A47
:10558000C164226802F1340143463A46206AFDF7BD
:1055900039FAAFF2ED71606AC163D449606AC164DF
:1055A000226802F1380143462A46606AFDF72AFA6A
:1055B0002068006840F00100216808600122002195
:1055C0002068FEF761FE012204212068FEF75CFEE0
:1055D0002068C06840F400702168C8602068C06816
:1055E00040F480602168C86001E0FFE700BF00BFB1
:1055F000002067E730B504460D465DB9002211462C
:105600002068FEF741FE2068C06820F40070216821
:10561000C86023E0042D0BD1002204212068FEF78E
:1056200033FE2068C06820F480602168C86015E0FF
:10563000002211462068FEF727FE00220421206880
:10564000FEF722FE2068C06820F400702168C86060
:105650002068C06820F480602168C86000BF2068AE
:10566000006A41F21111084050B92068006A89109F
:10567000084028B92068006820F00100216808600F
:1056800000BF012084F83900002030BD704770470A
:1056900010B5044620680069C0F34000D8B1206806
:1056A000C068C0F34000B0B16FF00200216808612B
:1056B000012020762068806900F0030018B12046A0
:1056C000FFF770FB05E02046FFF7E1FF2046FEF7FD
:1056D0000AFF0020207620680069C0F38000D8B15E
:1056E0002068C068C0F38000B0B16FF0040021688A
:1056F0000861022020762068806900F4407018B1AB
:105700002046FFF74FFB05E02046FFF7C0FF20468D
:10571000FEF7E9FE0020207620680069C0F3C00093
:10572000D8B12068C068C0F3C000B0B16FF0080005
:1057300021680861042020762068C06900F0030019
:1057400018B12046FFF72EFB05E02046FFF79FFF2C
:105750002046FEF7C8FE0020207620680069C0F3CE
:105760000010D8B12068C068C0F30010B0B16FF06D
:10577000100021680861082020762068C06900F4C4
:10578000407018B12046FFF70DFB05E02046FFF7FB
:105790007EFF2046FEF7A7FE0020207620680069E5
:1057A00000F0010058B12068C06800F0010030B17D
:1057B0006FF00100216808612046FEF7CBFC2068ED
:1057C0000069C0F3C01058B12068C068C0F3C010B1
:1057D00030B16FF0800021680861204601F091FE31
:1057E00020680069C0F3801058B12068C068C0F319
:1057F000801030B16FF04000216808612046FFF74B
:1058000045FF20680069C0F3401058B12068C068A7
:10581000C0F3401030B16FF02000216808612046CD
:1058200001F093FD10BD30B5002200230024056A6D
:1058300025F480550562036A4468C26922F4E04297
:1058400022F440720D6842EA052223F400538D6869
:1058500043EA0533264DA84202D0264DA84201D185
:10586000012500E0002525B124F480444D6944EA77
:1058700085144460C2614D680564036230BD30B573
:10588000002400220023056A25F480750562026A5F
:105890004368C46924F0700424F003040D682C43A9
:1058A00022F400728D6842EA0522114DA84202D00E
:1058B000104DA84201D1012500E0002585B122F458
:1058C0000062CD6842EA052222F4806223F480530C
:1058D00023F400534D6943EA05138D6943EA051328
:1058E0004360C4614D68C563026230BD4141000838
:1058F000000001400004014030B5002400220023D4
:10590000056A25F010050562026A4368846924F47B
:10591000E04424F440740D6844EA052422F0200297
:105920008D6842EA0512FC4DA84202D0FB4DA84208
:1059300001D1012500E0002585B122F08002CD686B
:1059400042EA051222F0400223F4806323F400634C
:105950004D6943EA85038D6943EA850343608461A9
:105960004D688563026230BD30B5002400220023FB
:10597000056A25F001050562026A4368846924F01E
:10598000700424F003040D682C4322F002028D6899
:105990002A43E14DA84202D0E04DA84201D10125A1
:1059A00000E000256DB122F00802CD682A4322F004
:1059B000040223F4807323F400734D692B438D6933
:1059C0002B43436084614D684563026230BD70B50E
:1059D00004460E46154600BF94F83800012801D150
:1059E000022070BD012084F8380000BF022084F836
:1059F000390035B1042D09D0082D0CD00C2D14D14F
:105A00000EE031462068FFF7AFFF0FE03146206817
:105A1000FFF772FF0AE031462068FFF730FF05E02C
:105A200031462068FFF7FFFE00E000BF00BF012005
:105A300084F8390000BF002084F8380000BF00BFA0
:105A4000CFE770B50C46154600210022066A26F401
:105A500080560662C169026A21F4407141EA05215B
:105A600021F470414FF4704606EA0336314322F4C4
:105A700020424FF4204606EA04363243C1610262F6
:105A800070BD70B50C46154600210022066A26F44A
:105A900080760662C169026A21F00301294321F080
:105AA000F001F02606EA0316314322F420624FF497
:105AB000206606EA04263243C161026270BD70B5F9
:105AC0000C46154600210022066A26F010060662E2
:105AD0008169026A21F4407141EA052121F4704193
